:020000040800F2
:10000000C807002049010008791F0008F510000802
:10001000751F0008190C00082F2E000800000000B2
:100020000000000000000000000000008124000823
:100030001D0C000800000000292300087929000891
:100040006301000863010008630100086301000800
:1000500063010008630100086301000863010008F0
:1000600063010008630100086301000863010008E0
:1000700063010008630100086301000863010008D0
:1000800063010008630100086301000863010008C0
:1000900063010008630100086301000863010008B0
:1000A00063010008630100086301000863010008A0
:1000B00063010008E12900086301000863010008EA
:1000C0006301000863010008630100086301000880
:1000D00063010008892B0008630100086301000820
:1000E0006301000863010008630100086301000860
:1000F0006301000863010008630100086301000850
:10010000630100086301000863010008630100083F
:10011000630100086301000863010008630100082F
:10012000630100086301000863010008630100081F
:10013000DFF810D000F042F8004800479938000876
:10014000AFF30080C80700200648804706480047F4
:10015000FEE7FEE7FEE7FEE7FEE7FEE7FEE7FEE777
:10016000FEE7FEE7812900083101000830B50546A9
:100170002A460B4612F8010B13F8014B08B1A042B6
:10018000F8D01CB1002802D06D1CF1E7284630BD24
:1001900030B50B46014600202022012409E021FA57
:1001A00002F59D4205D303FA02F5491B04FA02F554
:1001B0002844151EA2F10102F1DC30BD064C074DAA
:1001C00006E0E06840F0010394E807009847103427
:1001D000AC42F6D3FFF7B0FF683C0008883C00084B
:1001E00070B5044600F0EAFFA02001F04DF801F0E0
:1001F00021F8204601F048F801F01CF800F0DEFF7D
:10020000A12001F041F801F015F800F08BFF054640
:1002100001F010F800F0F2FF284670BD70B50546F9
:100220000C4600F0CBFFA02001F02EF801F002F800
:10023000284601F029F800F0FDFF204601F024F8DF
:1002400000F0F8FF00F0DAFF42F2107000F056FE06
:1002500070BD00002DE9F04100270025FBE20821D8
:10026000FE4800F025FF052F63D2DFE807F00363A7
:10027000C3FEFD00701CC6B200221146F8A002F0B9
:10028000E3FF4FF47A7000F039FE00220121F9A05B
:1002900002F0DAFF4FF47A7000F030FE0022022103
:1002A000EFA002F0D1FF4FF47A7000F027FE002299
:1002B0000321EBA002F0C8FF4FF47A7000F01EFE9D
:1002C00001F00AFF0446002C30D1012001F0E1FECC
:1002D0000446002C26D100221146E1A002F0B4FF12
:1002E0004FF47A7000F00AFE00220121E6A002F02D
:1002F000ABFF4FF47A7000F001FE00220221D8A07B
:1003000002F0A2FF4FF47A7000F0F8FD0022032102
:10031000D3A002F099FF4FF47A7000F0EFFD0026B1
:10032000012706E0204602F05FFA02E0204602F0D4
:100330005BFA89E2701CC6B200221146C8A002F026
:1003400083FF4FF47A7000F0D9FD00220121D3A081
:1003500002F07AFF4FF47A7000F0D0FD0022022103
:10036000BFA002F071FF4FF47A7000F0C7FD0022C9
:100370000321BBA002F068FF4FF47A7000F0BEFDCD
:1003800001F0AAFE0446002C30D1022001F081FECB
:100390000446002C26D100221146B1A002F054FFE1
:1003A0004FF47A7000F0AAFD00220121B6A002F0FD
:1003B0004BFF4FF47A7000F0A1FD00220221A8A0AB
:1003C00002F042FF4FF47A7000F098FD0022032102
:1003D000A3A002F039FF4FF47A7000F08FFD0026E1
:1003E000022706E0204602F0FFF902E0204602F074
:1003F000FBF929E20022114699A002F025FF4FF4F3
:100400007A7000F07BFD00220121A9A002F01CFF00
:100410004FF47A7000F072FD0022022190A002F0E9
:1004200013FF4FF47A7000F069FD002203218CA0C5
:1004300002F00AFF4FF47A7000F060FD01F0F4FE64
:100440000446002C28D10022114685A002F0FCFEB3
:100450004FF47A7000F052FD0022012199A002F0C1
:10046000F3FE4FF47A7001E09DE042E000F046FDBB
:10047000002202217AA002F0E7FE4FF47A7000F029
:100480003DFD0022032176A002F0DEFE4FF47A70DB
:1004900000F034FD032728E00022114670A002F08E
:1004A000D3FE4FF47A7000F029FD002201218AA0CA
:1004B00002F0CAFE4FF47A7000F020FD0022022103
:1004C00067A002F0C1FE4FF47A7000F017FD002221
:1004D000032163A002F0B8FE4FF47A7000F00EFD25
:1004E000204602F081F900260027804800F006FD32
:1004F000AAE1002211465AA002F0A6FE4FF47A703B
:1005000000F0FCFC0022012179A002F09DFE4FF4D6
:100510007A7000F0F3FC0022022151A002F094FE58
:100520004FF47A7000F0EAFC002203214CA002F0A4
:100530008BFE4FF47A7000F0E1FC6C4800F0DEFCBA
:1005400001F08FFE0446002C25D10022114644A064
:1005500002F07AFE4FF47A7000F0D0FC0022012104
:1005600068A002F071FE4FF47A7000F0C7FC002220
:1005700002213BA002F068FE4FF47A7000F0BEFC4E
:100580000022032136A002F05FFE4FF47A7000F0E3
:10059000B5FC042703E00027204602F025F95E4859
:1005A00000F0ACFC50E1002211465CA002F04CFED1
:1005B0004FF47A7000F0A2FC002201215CA002F04E
:1005C00043FE4FF47A7000F099FC002202215DA0F6
:1005D00002F03AFE4FF47A7000F090FC0022032102
:1005E0001FA002F031FE4FF47A7000F087FC00206B
:1005F00059490870C4E000F04BFF5849087058484A
:100600000078012828D10020554908705348007807
:100610000E2803D1002D01DD681EC5B24F480078B9
:100620000D2803D1632D01DA681CC5B24B48007850
:100630000F2801D1484908700321022001F01EFA59
:10064000642095FBF0F100FB11500A2190FBF1F0C2
:10065000303000F0FF0885E092E00000000C01401F
:10066000202020202020202020202020202020208A
:100670000000000020202020C7EBB0B4CAD6D6B8B6
:10068000202020200000000020202020D6B8CEC648
:10069000D5FDB3A320202020000000002020C7EBC0
:1006A000D4D9B0B4D2BBB4CE2020202000000000AA
:1006B0002020B6D4B1C8C1BDB4CED6B8CEC6202095
:1006C0000000000020202020B6D4B1C8B3C9B9A6CC
:1006D000202020200000000020202020B6D4B1C817
:1006E000CAA7B0DC202020200000000020A10700C5
:1006F0002020C9FAB3C9D6B8CEC6C4A3B0E520201D
:1007000000000000C9FAB3C9D6B8CEC6C4A3B0E58C
:10071000B3C9B9A60000000040420F00B0B43133A5
:10072000BCD3B0B43135BCF520202020000000003F
:10073000B0B43136B1A3B4E6202020202020202000
:100740000000000049443A20203030302020202092
:100750002020202000000000940000204C000020F9
:1007600044000020404602F08BFD0A2095FBF0F18A
:1007700000FB1150303000F0FF08404602F080FDD1
:10078000374800780F287FF436AF2946022001F061
:100790009BFD0446002C52D100221146AFF24010BE
:1007A00002F052FD4FF47A7000F0A8FB0022012104
:1007B0002CA002F049FD4FF47A7000F09FFB00225C
:1007C0000221AFF2641002F03FFD4FF47A7000F0A6
:1007D00095FB00220321AFF2781002F035FD4FF4B3
:1007E0007A7000F08BFB244800F088FB022023493C
:1007F00008700022114622A002F026FD4FF47A7004
:1008000000F07CFB0022012122A002F01DFD4FF42C
:100810007A7000F073FB0022022123A002F014FD85
:100820004FF47A7000F06AFB0022032123A002F04B
:100830000BFD4FF47A7000F061FBBDE8F0810027FA
:10084000204601F0D1FF00BF00BF214800F056FB59
:100850000A2E00D100E002E500BF00BFEDE7000076
:10086000940000202020C2BCC8EBD6B8CEC6B3C9C5
:10087000B9A6202000000000C0C62D004E000020B8
:100880002020B9DCC0EDD4B1BDE7C3E6A3A1202090
:100890000000000020202020D0DEB8C4C3DCC2EB62
:1008A00020202020000000003E202020C2BCC8EBF9
:1008B000D6B8CEC620202020000000002020202016
:1008C000C9BEB3FDD6B8CEC620202020000000004F
:1008D000801A060010B508219B4800F0EBFB41F29E
:1008E000707000F00BFB0020984908709849087060
:1008F0000022114697A002F0A7FC4FF47A7000F096
:10090000FDFA0022012198A002F09EFC4FF47A70BB
:1009100000F0F4FA0022022193A002F095FC4FF4BB
:100920007A7000F0EBFA002203218FA002F08CFC19
:100930004FF47A7000F0E2FA90480078092808DC59
:100940008F480078401C8E49087000F0A1FD8D4949
:1009500008708D4801F096FD884800780F287DD1F9
:10096000002087490870894908708748407888497D
:10097000497888427FD1844880788549897888423F
:1009800079D18148C0788249C978884273D17E483C
:1009900000797F49097988426DD17B4840797C494B
:1009A0004979884267D1784880797949897988423C
:1009B00061D1002077490870002211466AA002F038
:1009C00043FC4FF47A7000F099FA0022012172A0E2
:1009D00002F03AFC4FF47A7000F090FA0022022103
:1009E00061A002F031FC4FF47A7000F087FA002227
:1009F00003215DA002F028FC4FF47A7000F07EFA2B
:100A000000206149087048708870C870087148718A
:100A1000887108214C4800F04BFB644800F06EFAE6
:100A20000022114662A002F00FFC4FF47A7000F031
:100A300065FA0022012163A002F006FC4FF47A70EF
:100A400000F05CFA0022022163A002F0FDFB4FF4EB
:100A50007A7000F053FA0022032101E03FE00AE03F
:100A600062A002F0F1FB4FF47A7000F047FA022026
:100A70004849087033E0002211463BA002F0E4FB35
:100A80004FF47A7000F03AFA002201215CA002F0E3
:100A9000DBFB4FF47A7000F031FA0022022132A021
:100AA00002F0D2FB4FF47A7000F028FA0022032102
:100AB0002DA002F0C9FB4FF47A7000F01FFA082154
:100AC000214800F0F5FA534800F018FA08211E48B2
:100AD00000F0EEFA02F0A6FE00202E49087027482A
:100AE00000780A282FD100202549087000221146DD
:100AF00018A002F0A9FB4FF47A7000F0FFF9002271
:100B0000012119A002F0A0FB4FF47A7000F0F6F971
:100B10000022022114A002F097FB4FF47A7000F03B
:100B2000EDF90022032110A002F08EFB4FF47A7041
:100B300000F0E4F900201449087048708870C8700B
:100B400008714871887110BD000C014044000020FC
:100B50007D000020C7EBCAE4C8EBB9DCC0EDD4B11E
:100B6000C3DCC2EB00000000202020202020202039
:100B70002020202020202020000000004C00002009
:100B80004D0000207C0000205F0000205600002067
:100B9000660000204E00002020202020C3DCC2EB95
:100BA000D5FDC8B72020202000000000C0C62D00C1
:100BB0002020B9DCC0EDD4B1BDE7C3E6A3A120205D
:100BC000000000003E202020D0DEB8C4C3DCC2EB11
:100BD000202020200000000020202020C2BCC8EBE4
:100BE000D6B8CEC6202020200000000020202020E3
:100BF000C9BEB3FDD6B8CEC620202020000000001C
:100C000020202020C3DCC2EBB4EDCEF32020202036
:100C10000000000040420F0000BFFEE770470000E8
:100C200070B50024002211467CA002F00DFB4FF4A9
:100C30007A7000F063F9002201217DA002F004FB2C
:100C40004FF47A7000F05AF9002202217DA002F0E0
:100C5000FBFA4FF47A7000F051F9002203217EA0D4
:100C600002F0F2FA4FF47A7000F048F900207F4960
:100C7000087071E000F00CFC7D4908707D48007838
:100C8000012869D100207B490870794800780D2837
:100C900003D1632C01DA601C84B2754800780E28F9
:100CA00003D1002C01DD601E84B2714800780F284A
:100CB00001D16E4908700321022000F0DFFE64209C
:100CC00094FBF0F100FB11400A2190FBF1F0303071
:100CD000C6B2304602F0D4FA0A2094FBF0F100FBD1
:100CE00011403030C6B2304602F0CAFA604800788F
:100CF000002831D101F0B0F90546002D2CD1002299
:100D000001215DA002F0A0FA4FF47A7000F0F6F82D
:100D10000022114650A002F097FA4FF47A7000F0CA
:100D2000EDF8002203214CA002F08EFA4FF47A7005
:100D300000F0E4F80022022147A002F085FA4FF407
:100D40007A7000F0DBF8514800F0D8F80F204749DE
:100D5000087002204E490870444800780F2889D155
:100D60000121204601F042F90546002D4ED1002216
:100D7000114639A002F068FA4FF47A7000F0BEF81C
:100D80000022012143A002F05FFA4FF47A7000F0D4
:100D9000B5F80022022130A002F056FA4FF47A7022
:100DA00000F0ACF8002203212BA002F04DFA4FF422
:100DB0007A7000F0A3F8354800F0A0F80022114640
:100DC00039A002F041FA4FF47A7000F097F800224F
:100DD00001213AA002F038FA4FF47A7000F08EF850
:100DE000002202213AA002F02FFA4FF47A7000F0AC
:100DF00085F8002203213BA002F026FA4FF47A7016
:100E000000F07CF802202249087002E0284601F038
:100E1000EBFC394800F072F870BD00003133BCD3F0
:100E20003135BCF53136C8B7C8CF202000000000EE
:100E30003134C7E5BFD5D6B8CEC6BFE220202020CA
:100E40000000000049443A2020303030202020208B
:100E50002020202000000000202020202020202012
:100E600020202020202020200000000094000020CE
:100E70004C00002044000020C7E5BFD5D6B8CEC640
:100E8000BFE2B3C9B9A620200000000040420F0015
:100E90004E0000202020C9BEB3FDD6B8CEC6B3C9CF
:100EA000B9A62020000000002020B9DCC0EDD4B19C
:100EB000BDE7C3E6A3A120200000000020202020E1
:100EC000D0DEB8C4C3DCC2EB20202020000000002C
:100ED00020202020C2BCC8EBD6B8CEC620202020BF
:100EE000000000003E202020C9BEB3FDD6B8CEC60B
:100EF000202020200000000060E3160001B5044916
:100F00000098086000BF024800680028FBD108BDB7
:100F10003C00002030B516480068164AB0FBF2F1DC
:100F2000B1F1807F01D301201DE021F07F40401E00
:100F30004FF0E022506150170F22002807DA130704
:100F40001D0E0D4B00F00F04241F1D5503E0130769
:100F50001C0E0A4B1C5400BF00204FF0E022906191
:100F600007201061002008B100BFFEE730BD00007F
:100F70000400002040420F0018ED00E000E400E013
:100F80002DE9F04102460025002600200023002420
:100F9000002791F803C00CF00F0591F803C00CF086
:100FA000100CBCF1000F03D091F802C04CEA05050B
:100FB00091F800C0BCF1000F31D0146800202BE084
:100FC0004FF0010C0CFA00F3B1F800C00CEA030674
:100FD0009E4220D183004FF00F0C0CFA03F7BC4364
:100FE00005FA03FC4CEA040491F803C0BCF1280F95
:100FF00006D14FF0010C0CFA00FCC2F814C00AE054
:1010000091F803C0BCF1480F05D14FF0010C0CFA68
:1010100000FCC2F810C0401C0828D1D31460B1F8FD
:1010200000C0BCF1FF0F34DD546800202EE000F159
:10103000080C4FF0010808FA0CF3B1F800C00CEAF4
:1010400003069E4221D183004FF00F0C0CFA03F7E8
:10105000BC4305FA03FC4CEA040491F803C0BCF15C
:10106000280F05D100F1080C08FA0CF8C2F814801A
:1010700091F803C0BCF1480F07D100F1080C4FF004
:10108000010808FA0CF8C2F81080401C0828CED3DA
:101090005460BDE8F0810146886880B2704702461E
:1010A000002093680B400BB1012000E00020704746
:1010B0004161704701617047C160704702468020FE
:1010C00032B1012A08D0022A0AD0032A10D10BE03B
:1010D00001F18003D8B20BE001F19003D8B207E030
:1010E00001F18803D8B203E001F19803D8B200BF40
:1010F00000BF704700BFFEE708B50121042001F0E2
:1011000035F94FF4C050ADF8000003208DF802000F
:1011100010208DF8030069460148FFF731FF08BD34
:101120000008014070B5002521E0002000F026F8FD
:101130004FF400611048FFF7BDFF4FF47A60FFF7EE
:10114000DDFE6006040E4FF480510B48FFF7A7FF49
:10115000012801D144F001044FF400610648FFF773
:10116000A7FF4FF47A60FFF7C9FE681CC5B2082DCF
:10117000DBDB204670BD00000008014038B50446A6
:1011800074B14FF48050ADF8000003208DF80200D8
:1011900010208DF8030069460748FFF7F1FE0AE0CA
:1011A0004FF48050ADF8000048208DF803006946E8
:1011B0000148FFF7E5FE38BD0008014010B50120E9
:1011C000FFF7DCFF4FF400610B48FFF773FF0520CA
:1011D000FFF794FE4FF480510748FFF769FF0520A1
:1011E000FFF78CFE4FF400610348FFF761FF052015
:1011F000FFF784FE10BD00000008014010B501207B
:10120000FFF7BCFF4FF480510948FFF751FF05205D
:10121000FFF774FE4FF400610548FFF74BFF052010
:10122000FFF76CFE4FF480510148FFF743FF10BDFC
:101230000008014010B50020FFF7A0FF4FF4006147
:101240001048FFF737FF0420FFF758FE08E0601C46
:10125000C0B20446FA2803DDFFF7D0FF012010BD1D
:101260004FF480510748FFF71AFF0028EFD14FF4E1
:1012700000610448FFF71CFF0420FFF73FFE002039
:10128000EDE700000008014070B505464FF400612D
:101290001748FFF70DFF0420FFF730FE002424E07D
:1012A0000120FFF76BFF05FA04F000F0800028B181
:1012B0004FF480510E48FFF7FDFE04E04FF48051DB
:1012C0000B48FFF7F5FE4FF400610948FFF7F2FE07
:1012D0000420FFF713FE4FF400610548FFF7E8FE16
:1012E0000420FFF70BFE601CC4B2082CD8DB70BDD5
:1012F000000801407CB50546EF208DF80000012074
:101300008DF801001A480068000E8DF80200184898
:101310000068000C8DF8030015480088000A8DF85D
:101320000400134800788DF8050007208DF80600AA
:1013300000208DF807000F49088013E04FF47A7001
:10134000FFF7DCFD0B48008800F4004050B100209E
:101350000849088069460848FEF708FF04460CB1B2
:1013600020467CBD681E80B2051EE7D100BFF8E7AD
:10137000980000208C000020A400002010B5044636
:1013800014B101202C4908702B480078002836D071
:101390002A48006878B129481030006858B12748B9
:1013A0001430006838B125481830006818B1234857
:1013B0001C30006818BB42F21070FFF79FFD002040
:1013C0001D4908701D48006808B9012010BD1B4860
:1013D0001030006808B90220F8E718481430006897
:1013E00008B90320F2E715481830006808B904204E
:1013F000ECE712481C300068D8B90520E6E70F4832
:101400000068012815D10D4810300068012810D15E
:101410000A481430006801280BD1084818300068C9
:10142000012806D105481C300068012801D1024975
:1014300008700020CAE70000A0000020208121429F
:1014400008B54FF47040ADF8000001208DF802009F
:1014500010208DF8030069460C48FFF791FD4FF40A
:1014600070410A48FFF726FE4FF47060ADF80000A7
:1014700048208DF8030069460448FFF781FD4FF4CA
:1014800070610248FFF716FE08BD0000000C014025
:1014900010B54FF4FE41FE48FFF70EFE4FF4006119
:1014A000FB48FFF7FCFD90B14FF48061F848FFF76F
:1014B000F6FD60B14FF40071F548FFF7F0FD30B173
:1014C0004FF48071F248FFF7EAFD002821D143F67E
:1014D0009820FFF713FD4FF40061ED48FFF7DFFDA3
:1014E000C0B943F69820FFF709FD4FF40061E848C2
:1014F000FFF7D5FD002873D10120E6490870E649C1
:10150000087000BF4FF40061E148FFF7C8FD0028F4
:10151000F8D065E04FF48061DD48FFF7C0FDC8B941
:1015200043F69820FFF7EAFC4FF48061D848FFF7B4
:10153000B6FD002854D10220D64908700120D649B2
:10154000087000BF4FF48061D148FFF7A8FD002864
:10155000F8D045E04FF40071CD48FFF7A0FDC0B9C9
:1015600043F69820FFF7CAFC4FF40071C848FFF714
:1015700096FD60BB0320C74908700120C64908706A
:1015800000BF4FF40071C248FFF789FD0028F8D072
:1015900026E04FF48071BE48FFF781FDC0B943F6E5
:1015A0009820FFF7ABFC4FF48071B948FFF777FD47
:1015B00068B90A20B74908700120B749087000BF10
:1015C0004FF48071B248FFF76AFD0028F8D007E0B9
:1015D0000020B14908704FF47F41AD48FFF76CFD22
:1015E0004FF43F41AA48FFF767FD4FF40061A84858
:1015F000FFF755FD90B14FF48061A548FFF74FFD0F
:1016000060B14FF40071A248FFF749FD30B14FF4CB
:1016100080719F48FFF743FD002822D143F69820B0
:10162000FFF76CFC4FF400619948FFF738FDC8B92B
:1016300043F69820FFF762FC4FF400619448FFF7EF
:101640002EFD002873D10420924908700120924990
:10165000087000BF4FF400618D48FFF720FD00289F
:10166000F8D064E04FF480618948FFF718FDC0B9F5
:1016700043F69820FFF742FC4FF480618448FFF75F
:101680000EFD60BB05208349087001208249087067
:1016900000BF4FF480617E48FFF701FD0028F8D0BD
:1016A00045E04FF400717A48FFF7F9FCC0B943F602
:1016B0009820FFF723FC4FF400717548FFF7EFFC0B
:1016C00068B906207349087001207349087000BF8B
:1016D0004FF400716E48FFF7E2FC0028F8D026E0D6
:1016E0004FF480716A48FFF7DAFCC0B943F69820DE
:1016F000FFF704FC4FF480716548FFF7D0FCB0B9E8
:101700000B206449087001206349087000BF4FF442
:1017100080715F48FFF7C3FC0028F8D007E0002085
:101720005D4908704FF47F415948FFF7C5FC4FF4FD
:101730005F415748FFF7C0FC4FF400615448FFF782
:10174000AEFC90B14FF480615148FFF7A8FC60B146
:101750004FF400714E48FFF7A2FC30B14FF4807196
:101760004B48FFF79CFC002822D143F69820FFF756
:10177000C5FB4FF400614648FFF791FCC8B943F63A
:101780009820FFF7BBFB4FF400614148FFF787FC4F
:10179000002873D107203F49087001203E49087096
:1017A00000BF4FF400613A48FFF779FC0028F8D0F9
:1017B00064E04FF480613648FFF771FCC0B943F62E
:1017C0009820FFF79BFB4FF480613148FFF767FCDF
:1017D00060BB08202F49087001202F49087000BF06
:1017E0004FF480612A48FFF75AFC0028F8D045E002
:1017F0004FF400712648FFF752FCC0B943F6982019
:10180000FFF77CFB4FF400712148FFF748FC68B9F3
:1018100009202049087001201F49087000BF4FF4BB
:1018200000711B48FFF73BFC0028F8D026E04FF47E
:1018300080711748FFF733FCC0B943F69820FFF7D3
:101840005DFB4FF480711248FFF729FCB0B90C2002
:101850001049087001201049087000BF4FF48071D2
:101860000B48FFF71CFC0028F8D007E000200A49CD
:1018700008704FF47F410648FFF71EFC4FF46F419C
:101880000348FFF719FC4FF40061014806E000002F
:10189000000C01404500002044000020FFF7FFFB42
:1018A00090B14FF480614E48FFF7F9FB60B14FF4FF
:1018B00000714B48FFF7F3FB30B14FF4807148489B
:1018C000FFF7EDFB002840D143F69820FFF716FB09
:1018D0004FF400614248FFF7E2FBC0B943F698209D
:1018E000FFF70CFB4FF400613D48FFF7D8FB60BBEE
:1018F0000D203C49087001203B49087000BF4FF49F
:1019000000613748FFF7CBFB0028F8D064E04FF4C4
:1019100080613348FFF7C3FBC0B943F69820FFF757
:10192000EDFA4FF480612E48FFF7B9FB68B900204B
:101930002C49087001202C49087000BF4FF48061C9
:101940002748FFF7ACFB0028F8D045E04FF40071C2
:101950002348FFF7A4FBC0B943F69820FFF7CEFA5F
:101960004FF400711E48FFF79AFB60BB0E201D4923
:10197000087001201C49087000BF4FF4007118481E
:10198000FFF78DFB0028F8D026E04FF48071144853
:10199000FFF785FBC0B943F69820FFF7AFFA4FF485
:1019A00080710F48FFF77BFB68B90F200D49087065
:1019B00001200D49087000BF4FF480710848FFF7FF
:1019C0006EFB0028F8D007E00020074908704FF4AC
:1019D0007F410348FFF770FB0248007810BD00000C
:1019E000000C0140450000204400002010B5FA24FE
:1019F00020210E48FFF75CFB40210C48FFF75AFB03
:101A000080210A48FFF756FB01E0601EC4B2002C9B
:101A100006DD0748FFF73FFB00F080000028F4D107
:101A200080210248FFF744FB10BD0000000C01407C
:101A30000008014008B501210C2000F097FCFF20B0
:101A4000ADF8000010208DF8030003208DF802008F
:101A500069460848FFF794FAE020ADF8000010202E
:101A60008DF8030003208DF8020069460248FFF755
:101A700087FA08BD00080140000C014070B504461B
:101A80000D460CB980240AE0012C01D1902406E017
:101A9000022C01D1882402E0032C00D19824601983
:101AA000C6B2304601F0AEFB70BD000010B580211B
:101AB0001548FFF7FDFA41F28830FFF71FFA302092
:101AC00001F0A0FB41F28830FFF718FA302001F056
:101AD00099FB41F28830FFF711FA0C2001F092FBDC
:101AE00041F28830FFF70AFA012001F08BFB43F640
:101AF0009820FFF703FA062001F084FB41F28830BA
:101B0000FFF7FCF910BD0000000C01401CB50121DD
:101B10000C2000F02BFC0820ADF8040010208DF8FC
:101B2000070001208DF8060001A91648FFF728FAE2
:101B30000220ADF8000010208DF8030001208DF880
:101B4000020069460F48FFF71BFA4FF40040ADF85A
:101B5000000010208DF8030001208DF80200694676
:101B60000948FFF70DFA4FF400410748FFF7A0FAC4
:101B700008210448FFF79CFA02210248FFF798FA6F
:101B80001CBD0000000C01400008014000BF0549D9
:101B9000098801F040010029F9D00249091D088097
:101BA000704700000038014010B50020B2490870AD
:101BB00000221146B1A001F047FB4FF47A70FFF705
:101BC0009DF900220121B2A001F03EFB4FF47A7092
:101BD000FFF794F900220221B2A001F035FB4FF487
:101BE0007A70FFF78BF900220321B3A001F02CFBE0
:101BF0004FF47A70FFF782F90821B448FFF75AFAD8
:101C000042F21070FFF77AF9B1480078092808DC31
:101C1000B0480078401CAF490870FFF739FCAE4966
:101C20000870AB4800780C280AD1AC480078401CFA
:101C3000AA49087008460078032801DB00200870D4
:101C4000A648007800285AD1002211468BA001F046
:101C5000FBFA4FF47A70FFF751F9002201218CA0B2
:101C600001F0F2FA4FF47A70FFF748F900220221EE
:101C70008CA001F0E9FA4FF47A70FFF73FF90022E7
:101C800003218DA001F0E0FA4FF47A70FFF736F9E6
:101C90008F4800780F2826D10022114690A001F02D
:101CA000D3FA4FF47A70FFF729F90022012191A0AD
:101CB00001F0CAFA4FF47A70FFF720F900220221EE
:101CC0008CA001F0C1FA4FF47A70FFF717F90022E7
:101CD000032188A001F0B8FA4FF47A70FFF70EF9EB
:101CE0000320894908707A4800780A2806D101F053
:101CF00099FD00208549087083490870BAE077484B
:101D00000078012859D1002211465CA001F09CFA0C
:101D10004FF47A70FFF7F2F8002201217CA001F065
:101D200093FA4FF47A70FFF7E9F8002202217DA0C0
:101D300001F08AFA4FF47A70FFF7E0F800220321ED
:101D40005DA001F081FA4FF47A70FFF7D7F8604890
:101D500000780F2825D10022114666A001F074FA00
:101D60004FF47A70FFF7CAF80022012172A001F047
:101D70006BFA4FF47A70FFF7C1F8002202215DA0E0
:101D800001F062FA4FF47A70FFF7B8F800220321ED
:101D900058A001F059FA4FF47A70FFF7AFF8FEF748
:101DA00059FA4B4800780A2864D101F03BFD002025
:101DB00056490870544908705CE048480078022889
:101DC00058D1002211462DA001F03EFA4FF47A704E
:101DD000FFF794F8002201214DA001F035FA4FF4ED
:101DE0007A70FFF78BF8002202212EA001F02CFA66
:101DF0004FF47A70FFF782F80022032153A001F01C
:101E000023FA4FF47A70FFF779F8314800780F28F9
:101E100025D10022114652A001F016FA4FF47A7033
:101E2000FFF76CF80022012132A001F00DFA4FF407
:101E30007A70FFF763F8002202212EA001F004FA65
:101E40004FF47A70FFF75AF80022032129A001F01D
:101E5000FBF94FF47A70FFF751F8FEF7E1FE1C48EA
:101E600000780A2806D101F0DDFC0020274908701F
:101E70002549087010BD0000440000202020B9DC76
:101E8000C0EDD4B1BDE7C3E6A3A12020000000004F
:101E90003E202020D0DEB8C4C3DCC2EB20202020AE
:101EA0000000000020202020C2BCC8EBD6B8CEC65F
:101EB000202020200000000020202020C9BEB3FDEB
:101EC000D6B8CEC62020202000000000000C014023
:101ED0004C0000204D0000207C0000207B000020F2
:101EE000C7EBCAE4C8EBD0C2B5C4C3DCC2EBA3A144
:101EF0000000000020202020202020202020202062
:101F000020202020000000004E000020380000208B
:101F100020202020D0DEB8C4C3DCC2EB202020204B
:101F2000000000003E202020C2BCC8EBD6B8CEC6C0
:101F30002020202000000000C2BCC8EBD6B8CEC6CE
:101F40002020202020202020000000003E202020F3
:101F5000C9BEB3FDD6B8CEC62020202000000000A8
:101F6000C9BEB3FDD6B8CEC6202020202020202018
:101F70000000000000BFFEE77047000070B50021C0
:101F800000230F22C47804B3154C246804F4E064E1
:101F9000C4F5E064210AC1F10403CA40447804FA9C
:101FA00003F184781440214309010E4C0678A155B1
:101FB000047804F01F050124AC4005786D11AD00D4
:101FC00005F1E025C5F8004109E0047804F01F059B
:101FD0000124AC40044D0678761145F8264070BDCA
:101FE0000CED00E000E400E080E100E02DE9F041CC
:101FF00004460D4600F06BFB00F040FB012000F0B2
:1020000060FB072000F06BFB0C2000F072FB20123D
:10201000FFF7BCFDE0B2FFF7B9FD2812FFF7B6FDF0
:10202000E8B2FFF7B3FD142000EB2420E1B208442E
:1020300000EB2520E9B200EB0108404600F038FB38
:102040004FF4FA60FFF756F907460FB17E7A00E0C9
:10205000FF263046BDE8F08170B500F038FB00F097
:102060000DFB012000F02DFB032000F038FB0D20BC
:1020700000F03FFB1126304600F01AFB4FF4FA60E7
:10208000FFF738F905460DB16C7A00E0FF242046D1
:1020900070BD2DE9F041054600F019FB00F0EEFAA5
:1020A000012000F00EFB042000F019FB022000F0DC
:1020B00020FB2846FFF76AFDEF1D384600F0F8FACE
:1020C0004FF4FA60FFF716F906460EB1747A00E095
:1020D000FF242046BDE8F08170B500F0F8FA00F06A
:1020E000CDFA012000F0EDFA032000F0F8FA01200B
:1020F00000F0FFFA0526304600F0DAFA4FF4FA60F5
:10210000FFF7F8F805460DB16C7A00E0FF24204691
:1021100070BD000010B5044600F0D9FA00F0AEFA28
:102120000120FFF733FD0020FFF730FD0020FFF70F
:102130002DFD1648FEF7E2FE1548008800F4004029
:1021400008B314480078EF281AD1124840780128C3
:1021500016D110488079072812D10E4880780006E1
:102160000C49C97800EB01400A49097900EB0120CC
:10217000084949790844206000200549088010BDBD
:102180000020034908800120F9E70000400D03000A
:102190008C000020A40000202DE9F04781460D4668
:1021A00016461F4600F093FA00F068FA012000F08E
:1021B00088FA082000F093FA1B2000F09AFA4846AB
:1021C000FFF7E4FC2812FFF7E1FCE8B2FFF7DEFCC2
:1021D0003012FFF7DBFCF0B2FFF7D8FC09F1240066
:1021E00000EB2520E9B2084400EB2620F1B200EB19
:1021F000010A504600F05CFA4FF4FA60FFF77AF8F3
:10220000044664B194F80980E07AA17A00EB0120D9
:102210003880607B217B00EB0120788001E04FF06B
:10222000FF084046BDE8F08770B500F050FA00F0B6
:1022300025FA012000F045FA032000F050FA0320AF
:1022400000F057FA0726304600F032FA4FF4FA60F1
:10225000FFF750F805460DB16C7A00E0FF242046E8
:1022600070BD70B500F033FA00F008FA012000F0FC
:1022700028FA032000F033FA052000F03AFA092684
:10228000304600F015FA4FF4FA60FFF733F80546D0
:102290000DB16C7A00E0FF24204670BD08B5012125
:1022A000082000F063F80120ADF8000028208DF828
:1022B000030003208DF8020069460248FEF760FE25
:1022C00008BD0000000C01402DE9F04106460C4617
:1022D00000F0FDF900F0D2F9012000F0F2F906203B
:1022E00000F0FDF9062000F004FA3046FFF74EFC3E
:1022F0002012FFF74BFCE0B2FFF748FC06F10D009F
:1023000000EB2420E1B200EB0108404600F0D0F9D8
:102310004FF4FA60FEF7EEFF07460FB17D7A00E05A
:10232000FF252846BDE8F0817047000029B1064A24
:10233000D2690243044BDA6104E0034AD269824362
:10234000014BDA61704700000010024029B1064AD3
:1023500012690243044B1A6104E0034A1269824382
:10236000014B1A61704700000010024029B1064A73
:1023700092690243044B9A6104E0034A92698243E2
:10238000014B9A61704700000010024029B1064AD3
:10239000D2680243044BDA6004E0034AD268824305
:1023A000014BDA60704700000010024030B5002198
:1023B0000022002400232D4D6D6805F00C0121B191
:1023C000042905D0082923D105E0294D056022E024
:1023D000274D05601FE0254D6D6805F47012234DF3
:1023E0006D6805F48034022505EB92421CB9214D3D
:1023F000554305600BE01D4D6D6805F400351DB1BA
:102400001C4D5543056002E0194D5543056002E03F
:10241000174D056000BF00BF144D6D6805F0F00159
:102420000909154D6B5C0568DD4045600F4D6D6811
:1024300005F4E061090A104D6B5C4568DD4085607C
:102440000A4D6D6805F46051C90A0B4D6B5C456817
:10245000DD40C560054D6D6805F44041890B074DB1
:102460006B5CC568B5FBF3F5056130BD001002403B
:1024700000127A0000093D001C0000202C00002002
:102480007047000070B504465C480078072871D298
:10249000DFE800F0A7041F3A55718C005848007817
:1024A000607001210220FFF7E9FA60780A2190FBB1
:1024B000F1F201FB12003030C5B2284600F0E0FE18
:1024C0005048FEF71BFD002202214FA000F0BCFE89
:1024D00091E04B480078A07002210846FFF7CEFA41
:1024E000A0780A2190FBF1F201FB12003030C5B256
:1024F000284600F0C5FE4348FEF700FD00220221F9
:1025000046A000F0A1FE76E03D480078E07003218F
:102510000220FFF7B3FAE0780A2190FBF1F201FB09
:1025200012003030C5B2284600F0AAFE3548FEF74A
:10253000E5FC002202213EA000F086FE5BE0304870
:102540000078207104210220FFF798FA20790A21EF
:1025500090FBF1F201FB12003030C5B2284600F0CA
:102560008FFE2848FEF7CAFC0022022135A000F0A9
:102570006BFE40E035E022480078607105210220C2
:10258000FFF77CFA60790A2190FBF1F201FB12005F
:102590003030C5B2284600F073FE1A48FEF7AEFC94
:1025A000002202212BA000F04FFE24E01448007806
:1025B000A07106210220FFF761FAA0790A2190FBA1
:1025C000F1F201FB12003030C5B2284600F058FE8F
:1025D0000C48FEF793FC0022022123A000F034FEF9
:1025E00009E006480078062804DB002202211EA02C
:1025F00000F02AFE00BF00BF70BD00004D000020AB
:102600007C000020A086010020202A2020202020FD
:1026100020202020202020200000000020202A2030
:102620002A20202020202020202020200000000020
:1026300020202A202A202A2020202020202020207C
:102640000000000020202A202A202A202A202020E2
:102650002020000020202A202A202A202A202A2088
:10266000202020200000000020202A202A202A20CC
:102670002A202A202A2020200000000010B50B4923
:102680000968080EFFF782FA08480068C0F307409F
:10269000FFF77CFA05480088C0F30720FFF776FAB9
:1026A00002490878FFF772FA10BD00009800002078
:1026B00010B504462012FFF769FAE0B2FFF766FA98
:1026C00010BD10B504462046FFF760FA10BD10B5E6
:1026D000EF20FFF75BFA0120FFF758FA10BD10B5A5
:1026E0000446C4F30720FFF751FAE0B2FFF74EFAB1
:1026F00010BD10B504462046FFF748FA10BD10B5CE
:1027000000F002F810BD00000CB500200190009010
:102710003348006840F480303149086000BF3048D9
:10272000006800F4003000900198401C019000986F
:1027300018B90198B0F5A06FF1D12948006800F4EC
:10274000003010B10120009001E0002000900098BE
:10275000012843D12348006840F010002149086057
:102760000846006820F0070008600846006840F04E
:10277000020008601A4840681949486008464068E5
:1027800048600846406840F48060486008464068F9
:1027900020F47C1048600846406840F4E810486027
:1027A0000846006840F08070086000BF0C48006870
:1027B00000F000700028F9D00948406820F00300BC
:1027C000074948600846406840F00200486000BF82
:1027D0000348406800F00C000828F9D10CBD000047
:1027E00000100240002002407047000010B5082190
:1027F0005048FEF75FFC41F27070FEF77FFB00204F
:102800004D490870002211464CA000F01DFD4FF408
:102810007A70FEF773FB002201214DA000F014FD39
:102820004FF47A70FEF76AFB0022022148A000F004
:102830000BFD4FF47A70FEF761FB0022032144A0E8
:1028400000F002FD4FF47A70FEF758FB454800781F
:10285000092808DC44480078401C43490870FEF70A
:1028600017FE424908704248FFF70CFE3D480078C9
:102870000A282FD100203C490870002211462FA0C1
:1028800000F0E2FC4FF47A70FEF738FB00220121E1
:102890002FA000F0D9FC4FF47A70FEF72FFB002236
:1028A00002212BA000F0D0FC4FF47A70FEF726FB3B
:1028B0000022032126A000F0C7FC4FF47A70FEF737
:1028C0001DFB00202A49087048708870C870087184
:1028D00048718871234800780F2829D100221146B9
:1028E00016A000F0B1FC4FF4FA60FEF707FB0022DF
:1028F000012117A000F0A8FC4FF4FA60FEF7FEFAE1
:102900000022022112A000F09FFC4FF4FA60FEF7B3
:10291000F5FA002203210EA000F096FC4FF4FA60B5
:10292000FEF7ECFA002010490870042011490870E5
:1029300010BD0000000C014044000020C7EBCAE4B9
:10294000C8EBD0C2B5C4C3DCC2EBA3A10000000039
:102950002020202020202020202020202020202077
:10296000000000004C0000204D0000207C000020F2
:102970006D0000204E00002000B500F0F9F800BD09
:1029800010B51348006840F001001149086008467E
:102990004068104908400E494860084600680E49E2
:1029A00008400B4908600846006820F48020086051
:1029B0000846406820F4FE0048604FF41F0088601D
:1029C000FFF79DFE4FF000600449086010BD000055
:1029D000001002400000FFF8FFFFF6FE08ED00E0E7
:1029E00010B50121094800F054F868B10848008882
:1029F00040F40040064908800121044800F03AF8FC
:102A00000021024800F039F810BD00000004004029
:102A10008C0000207FB505460C4601210220FFF7FF
:102A200085FCADF80450ADF800400020ADF806007C
:102A3000ADF8020069460E4800F048F80122114640
:102A40000B4800F037F80121094800F016F81D2066
:102A50008DF80C0000208DF80D0002208DF80E007E
:102A600001208DF80F0003A8FFF788FA7FBD000052
:102A700000040040CA430282704721B1028842F03C
:102A80000102028004E002884FF6FE731A400280C1
:102A9000704730B50246002000230024158A05EA5D
:102AA0000103958905EA010413B10CB1012000E08E
:102AB000002030BD1AB183890B43838102E08389F2
:102AC0008B43838170478184704700000022028815
:102AD0001D4B98420ED01D4B98420BD0B0F1804F49
:102AE00008D01B4B984205D01A4B984202D01A4B83
:102AF000984204D14FF68F731A404B881A43174BF4
:102B0000984207D0164B984204D04FF6FF431A4024
:102B1000CB881A4302808B8883850B8803850A4BF8
:102B200098420BD0094B984208D00E4B984205D0E2
:102B30000D4B984202D00D4B984201D10B7A03867F
:102B40000123838270470000002C014000340140C3
:102B50000004004000080040000C0040001000404D
:102B60000014004000400140004401400048014082
:102B70000448006820B103480068401E014908600D
:102B8000704700003C00002010B540F22551164867
:102B900000F08CF8F8B1144800F044F9C4B21348BE
:102BA000008800F40040B0B910480088B0F5C87F34
:102BB00012DA00210E48FFF786FF0C48008818B98A
:102BC00001210B48FFF759FF08490888411C074AB3
:102BD000118008490C5405E00448008840F4004086
:102BE0000249088010BD0000003801408C00002020
:102BF00000040040A400002021B1828942F4005268
:102C0000828104E082894DF6FF731A408281704709
:102C100010B504462048844209D101218803FFF7FA
:102C2000B5FB00214FF48040FFF7B0FB32E01B48BA
:102C3000844209D101214804FFF788FB00214FF4A9
:102C40000030FFF783FB25E01548844209D10121BC
:102C50008804FFF77BFB00214FF48020FFF776FB11
:102C600018E01048844209D10121C804FFF76EFB27
:102C700000214FF40020FFF769FB0BE00A48844273
:102C800008D101210805FFF761FB00214FF48010F6
:102C9000FFF75CFB10BD000000380140004400401D
:102CA00000480040004C00400050004070B5024613
:102CB000002400230025002040F66A16B14200D10E
:102CC00000BFC1F3421501F01F03012606FA03F30A
:102CD000012D02D19689334006E0022D02D1168AD9
:102CE000334001E0968A33400C12012606FA04F4C0
:102CF0001688344013B10CB1012000E0002070BDF3
:102D0000F0B50346002400260025002040F66A178F
:102D1000B94200D100BF1846C1F3421401F01F06AA
:102D2000012707FA06F5012C01D10C3004E0022C32
:102D300001D1103000E014301AB107682F4307604A
:102D400002E00768AF430760F0BD00002DE9F047DF
:102D500086B005460E460024A24600BFA1460027C5
:102D6000B08900B100BF2F462C8A4CF6FF7004409A
:102D7000F08804432C82AC894EF6F3100440B088EE
:102D800031890843718908430443AC81AC8A4FF60A
:102D9000FF400440B0890443AC8201A8FFF706FB62
:102DA0001F48874202D1DDF810A001E0DDF80CA039
:102DB000A88900F4004040B10AEBCA0000EB0A10F9
:102DC00031684900B0FBF1F807E00AEBCA0000EBFC
:102DD0000A1031688900B0FBF1F86420B8FBF0F00C
:102DE00004012009642101FB1089A88900F4004036
:102DF00040B1322000EBC900B0FBF1F000F0070059
:102E0000044308E0322000EB09106421B0FBF1F02C
:102E100000F00F0004432C8106B0BDE8F0870000ED
:102E20000038014001468888C0F30800704700BFA1
:102E3000FEE7000010B50821A848FEF73BF942F272
:102E40001070FEF75BF80020A5490870A5480078CF
:102E5000092808DCA4480078401CA3490870FEF744
:102E600017FBA2490870A248FFF70CFB9D480078A9
:102E70000A280DD100209C49087000F0D3FC0020E6
:102E80009B49087048708870C870087148718871D3
:102E9000944800780F287DD10120FDF7A1F99549CC
:102EA00008700220FDF79CF9924948700320FDF755
:102EB00097F9904988700420FDF792F98D49C87000
:102EC0000520FDF78DF98B4908710620FDF788F97B
:102ED000884948710720FDF783F9864988710020E9
:102EE0008149087083490870814840784978884250
:102EF00063D17F4880787F49897888425DD17C485A
:102F0000C0787C49C978884257D179480079794995
:102F10000979884251D17648407976494979884281
:102F20004BD17348807973498979884245D1002013
:102F3000714908700022114670A000F085F94FF425
:102F40007A70FDF7DBFF0022012171A000F07CF90F
:102F50004FF47A70FDF7D2FF0022022167A000F043
:102F600073F94FF47A70FDF7C9FF0022032163A0C3
:102F700000F06AF94FF47A70FDF7C0FF00205C4959
:102F8000087048708870C87008714871887108218D
:102F9000524800E0A1E0FEF78BF84FF40041614891
:102FA000FEF788F86048FDF7A9FF4FF400415D483F
:102FB000FEF77EF800F036FC8FE04F480078401CAA
:102FC0004D4908700846007801282DD1002211468D
:102FD00056A000F039F94FF47A70FDF78FFF002208
:102FE000012157A000F030F94FF47A70FDF786FF09
:102FF0000022022157A000F027F94FF47A70FDF764
:103000007DFF002203213DA000F01EF94FF47A70ED
:10301000FDF774FF08213148FEF74AF85248FDF7E2
:103020006DFF00F0FFFB58E03348007802282DD1F7
:10303000002211463DA000F007F94FF47A70FDF729
:103040005DFF002201213EA000F0FEF84FF47A70EF
:10305000FDF754FF0022022144A000F0F5F84FF4E0
:103060007A70FDF74BFF0022032124A000F0ECF85A
:103070004FF47A70FDF742FF08211848FEF718F860
:103080003948FDF73BFF00F0CDFB26E0002211465A
:103090003BA000F0D9F84FF47A70FDF72FFF002223
:1030A00001213CA000F0D0F84FF47A70FDF726FF24
:1030B000002202213CA000F0C7F84FF47A70FDF71F
:1030C0001DFF002203210DA000F0BEF84FF47A701E
:1030D000FDF714FF63203949087010BD000C014052
:1030E000440000204C0000204D0000207C00002007
:1030F0004F000020560000207D00002020202020CE
:10310000202020202020202020202020000000003F
:1031100020202020BFAACBF8B3C9B9A620202020A8
:103120000000000000080140C0C62D002020202023
:10313000C3DCC2EBB4EDCEF3202020200000000061
:103140002020C7EBD6D8D0C2B3A2CAD4A3A12020D6
:1031500000000000C4FABBB9D3D0C1BDB4CEBBFAE5
:10316000BBE1A3A10000000080841E00C4FABBB92B
:10317000D3D0D2BBB4CEBBFABBE1A3A10000000008
:10318000C4FAD2D1CAE4C8EBB4EDCEF3C8FDB4CED4
:1031900000000000C4E3B5C4C3DCC2EBD2D1BEADB5
:1031A000B6B3BDE100000000C7EBCAE4C8EBB9DC70
:1031B000C0EDD4B1C3DCC2EB000000004E00002023
:1031C00010B5044620210D48FDF774FF40210B483F
:1031D000FDF76EFF0520FDF791FE80210748FDF702
:1031E00069FF21460648FDF767FF0520FDF786FECB
:1031F00080210248FDF75CFF10BD0000000C01407B
:103200000008014010B5044620210D48FDF750FF8D
:1032100040210B48FDF74CFF0520FDF76FFE802194
:103220000748FDF747FF21460648FDF745FF052003
:10323000FDF764FE80210248FDF73AFF10BD000053
:10324000000C0140000801402DE9F04104460D4604
:10325000164631462846FDF731FF0746FEF7C6FB06
:103260003846FFF7CFFF05E0FEF7C0FB2078FFF7F9
:10327000A7FF641C20780028F6D1BDE8F08100008B
:1032800010B50446FEF7B2FB20210E48FDF712FFF1
:1032900040210C48FDF70CFF80210A48FDF708FF8C
:1032A00021460948FDF708FF80210648FDF702FF87
:1032B00041F28830FDF722FE80210248FDF7F8FE3A
:1032C00010BD0000000C0140000801400FB4084B85
:1032D00010B504A902AA039800F01CF8044602A93C
:1032E000002000F0C1F8204610BC5DF814FB00007F
:1032F0006934000802E008C8121F08C1002AFAD188
:1033000070477047002001E001C1121F002AFBD165
:10331000704700002DE9FF4F89B09B460446002509
:1033200006E025280BD05A460B999047641C6D1C6B
:1033300020780028F5D10DB02846BDE8F08F002791
:10334000B8460122474900E0074314F8013F203BFB
:1033500002FA03F00842F7D120782E2819D114F888
:10336000010F47F004072A280ED06FF02F022078B3
:10337000A0F1300109290CD808EB880102EB4101CA
:1033800000EB0108641CF2E70A98641C50F8048BF7
:103390000A9020780028CED0642808D0692806D06A
:1033A00075281ED05A460B9990476D1C58E00A9913
:1033B0004FF00A0901C90A91002802DA40422D2182
:1033C00002E0390504D52B218DF82010012103E0FE
:1033D000F90704D02021F7E78A4608AE0DE0002166
:1033E000FAE70A994FF00A0901C90A91F7E7494635
:1033F000FCF7CEFE303106F8011D0028F7D1ADEB09
:10340000060000F12009780701D44FF00108C845F3
:1034100002DDA8EB090000E000208046002706E05E
:1034200008A85A46C05D0B9990476D1C7F1C5745F4
:10343000F6DB04E030205A460B9990476D1CB8F13A
:103440000001A8F10108F5DC05E016F8010B5A4669
:103450000B9990476D1CB9F10001A9F10109F4DC49
:10346000641C65E7092801000A68531C0B60107092
:103470007047000000200B4908700B4800780B28AB
:103480000FD10A480078401C0849087008460078A7
:10349000052806DB00200870054908700120054951
:1034A00008707047440000204C0000205E0000209F
:1034B0004D0000204E00002010B50821A448FDF763
:1034C000F9FD41F27070FDF719FD0020A149087067
:1034D00000221146A0A0FFF7B7FE4FF4FA60FDF7F7
:1034E0000DFD00220121A1A0FFF7AEFE4FF4FA600E
:1034F000FDF704FD002202219CA0FFF7A5FE4FF47A
:10350000FA60FDF7FBFC0022032198A0FFF79CFE68
:103510004FF4FA60FDF7F2FC99480078092808DCBE
:1035200098480078401C97490870FDF7B1FF96490C
:1035300008709648FEF7A6FF914800780A282FD118
:103540000020904908700022114683A0FFF77CFEFE
:1035500041F28830FDF7D2FC0022012183A0FFF761
:1035600073FE41F28830FDF7C9FC002202217FA0E2
:10357000FFF76AFE41F28830FDF7C0FC002203210C
:103580007AA0FFF761FE41F28830FDF7B7FC00201A
:103590007E49087048708870C870087148718871D9
:1035A000774800780C2806D10020764908707849C1
:1035B000087000F037F9724800780F287DD17548FF
:1035C000407872494978884278D1724880786F494A
:1035D00089788842F8D16F48C0786C49C9788842A8
:1035E000F2D16C480079694909798842ECD169487F
:1035F0004079664949798842E6D1664880796349CD
:10360000897988427BD1614801780120FCF706FE68
:103610005E4841780220FCF701FE5C488178032077
:10362000FCF7FCFD5948C1780420FCF7F7FD57482A
:1036300001790520FCF7F2FD544841790620FCF79A
:10364000EDFD524881790720FCF7E8FD0022114684
:1036500046A0FFF7F9FD4FF4FA60FDF74FFC00229A
:1036600001214DA0FFF7F0FD4FF4FA60FDF746FC95
:10367000002202213DA0FFF7E7FD4FF4FA60FDF7BD
:103680003DFC0022032139A0FFF7DEFD4FF4FA6074
:10369000FDF734FC08212E48FDF70AFD4348FDF7ED
:1036A0002DFC02203A49087000203649087000229B
:1036B00011463FA0FFF7C8FD01E047E01FE04FF4CF
:1036C0007A70FDF71BFC002201213EA0FFF7BCFD34
:1036D0004FF47A70FDF712FC002202213EA0FFF7A2
:1036E000B3FD4FF47A70FDF709FC002203213FA0DF
:1036F000FFF7AAFD4FF47A70FDF700FC26E00022E8
:1037000011461AA0FFF7A0FD4FF47A70FDF7F6FB03
:10371000002201213AA0FFF797FD4FF47A70FDF7E0
:10372000EDFB0022022111A0FFF78EFD4FF47A700D
:10373000FDF7E4FB0022032136A0FFF785FD4FF4DF
:103740007A70FDF7DBFB03201149087010BD000003
:10375000000C014044000020C7EBCAE4C8EBD0C213
:10376000B5C4C3DCC2EBA3A10000000020202020D0
:1037700020202020202020202020202000000000C9
:103780004C0000204D0000207C0000207400002030
:103790004E0000206D0000202A2A2A2AD0DEB8C45C
:1037A000B3C9B9A62A2A2A2A0000000080841E0074
:1037B0002020B9DCC0EDD4B1BDE7C3E6A3A1202031
:1037C000000000003E202020D0DEB8C4C3DCC2EBE5
:1037D000202020200000000020202020C2BCC8EBB8
:1037E000D6B8CEC6202020200000000020202020B7
:1037F000C9BEB3FDD6B8CEC62020202000000000F0
:1038000020202020D6D8D0C2CAE4C8EB2020202017
:10381000000000002020202020202020202020093F
:103820000920000010B50022114611A0FFF70CFD81
:103830004FF47A70FDF762FB0022012111A0FFF71F
:1038400003FD4FF47A70FDF759FB002202210DA011
:10385000FFF7FAFC4FF47A70FDF750FB00220321CA
:1038600008A0FFF7F1FC4FF47A70FDF747FB10BD9D
:1038700053544D333220D6B8CEC6C3DCC2EBCBF89E
:1038800000000000202020202020202020202020B8
:103890002020202000000000FDF73CFB4FF4614099
:1038A00000F07AF9FEF7C6F8FEF700F9FDF7C8FD5B
:1038B000FEF72CF9FDF720FCFEF7F0FC14E00022E7
:1038C000114630A0FFF7C0FC32480078401C314957
:1038D0000870084600780F2806DB002201212EA080
:1038E000FFF7B2FC00BFFEE72E48FEF713FC0028EE
:1038F000E5D1FFF797FF43E02B48007808B900F0C7
:103900005BF8FDF7C5FD29490870294800780128B2
:1039100036D12848007803281FD005DC48B101289B
:103920000FD002282BD112E004281CD0632826D106
:103930001FE000201C490870FFF77CFAFFF79AFD92
:103940001DE0012018490870FCF7C4FF17E00120B2
:1039500015490870FEF728F911E001201249087096
:10396000FEF744FF0BE001200F490870FFF7A4FDAC
:1039700005E001200C490870FFF77CFD00BF00BF87
:10398000BAE70000B3A2CAD4C1ACBDD3C4A3BFE997
:103990000000000034000020B3F5CABCBBAFCAA7CA
:1039A000B0DC000098000020380000204C0000200F
:1039B000440000204E00002010B586B00020FDF726
:1039C000DDFC56490870FEF787FB0446002C7DD1CC
:1039D0000120FEF75EFB0446002C76D105AB632286
:1039E00000210120FEF7D8FB0446002C43D14C49AE
:1039F0000870002211464BA0FFF726FC4FF47A70A6
:103A0000FDF77CFA002201214BA0FFF71DFC4FF4CB
:103A10007A70FDF773FABDF814204CA16846FFF7E1
:103A200055FC4FF47A70FDF769FA002202216846CE
:103A3000FFF70AFC4FF47A70FDF760FA00220321C9
:103A400038A0FFF701FC4FF47A70FDF757FA082110
:103A50004348FDF72DFB4FF400414248FDF72AFB98
:103A60004148FDF74BFA4FF400413E48FDF720FB7B
:103A7000FFF7D8FE29E000202949087000221146EE
:103A800028A0FFF7E1FB4FF47A70FDF737FA002228
:103A9000012136A0FFF7D8FB4FF47A70FDF72EFA1C
:103AA000002202211FA0FFF7CFFB4FF47A70FDF731
:103AB00025FA002203211BA0FFF7C6FB4FF47A7002
:103AC000FDF71CFA2E48FDF719FA00E023E000226A
:103AD00011462CA0FFF7B8FB4FF47A70FDF70EFAF1
:103AE000002201210FA0FFF7AFFB4FF47A70FDF722
:103AF00005FA002202210BA0FFF7A6FB4FF47A7013
:103B0000FDF7FCF90022032106A0FFF79DFB4FF40F
:103B10007A70FDF7F3F906B010BD000084000020B4
:103B20004D000020202020202020202020202020A8
:103B300020202020000000002020D6B8CEC6D1E9E9
:103B4000D6A4B3C9B9A62020000000002049443AF9
:103B5000256420202020202020202020000000009C
:103B6000000C014000080140C0C62D00202020208C
:103B7000D1E9D6A4CAA7B0DC202020200000000094
:103B800060E3160053544D333220D6B8CEC6C3DCA2
:103B9000C2EBCBF80000000010B586B0044601214E
:103BA0000420FEF7E3FB01218803FEF7DFFB2A4830
:103BB000FFF72EF84FF40070ADF8100003208DF8D9
:103BC000120018208DF8130004A92448FDF7D8F935
:103BD0004FF48060ADF8100004208DF8130004A9A4
:103BE0001E48FDF7CDF900940020ADF80400ADF8B3
:103BF0000600ADF80800ADF80C000C20ADF80A0086
:103C000069461548FFF7A2F801211348FEF7F4FFB3
:103C1000012240F225511048FFF772F825208DF857
:103C2000140002208DF8150003208DF816000120E5
:103C30008DF8170005A8FEF7A1F941F61F41632092
:103C4000FEF7E8FE00200649088000210548FEF73F
:103C500014FF06B010BD000000380140000801400C
:103C60008C00002000040040883C00080000002078
:103C7000A4000000F43200082C3D0008A40000203D
:103C800024070000043300080000000000A24A04DA
:103C900000000000000000000102030406070809FC
:103CA0000000000000000000010203040102030400
:103CB00006070809020406080000000000000000D2
:103CC00000000000000000000000000000000000F4
:103CD00000000000000000000000000000000004E0
:103CE00003090905080000000000000000000001B1
:103CF00002030405060000000000000000000000B0
:103D000000000000000000000000000000000000B3
:103D100000000000000000000000000000000000A3
:0C3D2000FFFFFFFF00000000010000009A
:0400000508000149A5
:00000001FF
